:020000040800F2
:100000000050002049870008B91C0008BB1C0008EC
:10001000BD1C0008BF1C0008C11C00080000000037
:10002000000000000000000000000000C31C0008E9
:10003000C51C000800000000C71C0008C91C0008FF
:100040009187000891870008918700089187000830
:100050009187000891870008918700089187000820
:10006000918700089187000891870008D11C00083B
:100070009187000891870008E11C0008F11C000826
:10008000918700089187000891870008011D0008EA
:10009000111D0008211D0008311D0008411D000828
:1000A00091870008431D0008918700089187000888
:1000B000918700084B1D00084D1D0008918700081E
:1000C00091870008918700089187000891870008B0
:1000D00091870008551D0008918700089187000846
:1000E00091870008918700089187000800000000B0
:1000F0000000000000000000000000000000000000
:0C01000000000000000000005FF808F1A3
:1001100081F0004102E000BF83F0004330B54FEAB8
:1001200041044FEA430594EA050F08BF90EA020F25
:100130001FBF54EA000C55EA020C7FEA645C7FEAB8
:10014000655C00F0E2804FEA5454D4EB5555B8BFDB
:100150006D420CDD2C4480EA020281EA030382EA4C
:10016000000083EA010180EA020281EA0303362DDE
:1001700088BF30BD11F0004F4FEA01314FF4801CB1
:100180004CEA113102D0404261EB410113F0004FC3
:100190004FEA03334CEA133302D0524263EB43037A
:1001A00094EA050F00F0A780A4F10104D5F1200E18
:1001B0000DDB02FA0EFC22FA05F2801841F1000173
:1001C00003FA0EF2801843FA05F359410EE0A5F147
:1001D00020050EF1200E012A03FA0EFC28BF4CF078
:1001E000020C43FA05F3C01851EBE37101F000452E
:1001F00007D54FF0000EDCF1000C7EEB00006EEB3B
:100200000101B1F5801F1BD3B1F5001F0CD34908C4
:100210005FEA30004FEA3C0C04F101044FEA44521B
:1002200012F5800F80F09A80BCF1004F08BF5FEAA2
:10023000500C50F1000041EB045141EA050130BD82
:100240005FEA4C0C404141EB0101013C28BFB1F594
:10025000801FE9D291F0000F04BF01460020B1FADF
:1002600081F308BF2033A3F10B03B3F120020CDAB2
:100270000C3208DD02F1140CC2F10C0201FA0CF090
:1002800021FA02F10CE002F11402D8BFC2F1200CF5
:1002900001FA02F120FA0CFCDCBF41EA0C019040AB
:1002A000E41AA2BF01EB0451294330BD6FEA0404F4
:1002B0001F3C1CDA0C340EDC04F11404C4F12002DF
:1002C00020FA04F001FA02F340EA030021FA04F3F1
:1002D00045EA030130BDC4F10C04C4F1200220FA48
:1002E00002F001FA04F340EA0300294630BD21FA86
:1002F00004F0294630BD94F0000F83F4801306BF4C
:1003000081F480110134013D4EE77FEA645C18BF3F
:100310007FEA655C29D094EA050F08BF90EA020FD6
:1003200005D054EA000C04BF1946104630BD91EACE
:10033000030F1EBF0021002030BD5FEA545C05D1D1
:100340004000494128BF41F0004130BD14F5800410
:100350003CBF01F5801130BD01F0004545F0FE4184
:1003600041F470014FF0000030BD7FEA645C1ABFB9
:10037000194610467FEA655C1CBF0B46024650EAF0
:10038000013406BF52EA033591EA030F41F400211C
:1003900030BD00BF90F0000F04BF0021704730B5A2
:1003A0004FF4806404F132044FF000054FF0000177
:1003B00050E700BF90F0000F04BF0021704730B538
:1003C0004FF4806404F1320410F0004548BF40420D
:1003D0004FF000013EE700BF42004FEAE2014FEA62
:1003E00031014FEA02701FBF12F07F4393F07F4F3D
:1003F00081F06051704732F07F4208BF704793F040
:100400007F4F04BF41F40021704730B54FF4607452
:1004100001F0004521F000411CE700BF50EA010255
:1004200008BF704730B54FF000050AE050EA0102FE
:1004300008BF704730B511F0004502D5404261EB6E
:1004400041014FF4806404F132045FEA915C3FF4AF
:10045000D8AE4FF003025FEADC0C18BF03325FEA4C
:10046000DC0C18BF033202EBDC02C2F1200300FAFD
:1004700003FC20FA02F001FA03FE40EA0E0021FA22
:1004800002F11444BDE600BF70B54FF0FF0C4CF410
:10049000E06C1CEA11541DBF1CEA135594EA0C0FC2
:1004A00095EA0C0F00F0DEF82C4481EA030621EAFD
:1004B0004C5123EA4C5350EA013518BF52EA033538
:1004C00041F4801143F4801338D0A0FB02CE4FF0EA
:1004D0000005E1FB02E506F00042E0FB03E54FF01A
:1004E0000006E1FB03569CF0000F18BF4EF0010E12
:1004F000A4F1FF04B6F5007F64F5407404D25FEA0E
:100500004E0E6D4146EB060642EAC62141EA5551C0
:100510004FEAC52040EA5E504FEACE2EB4F1FD0C02
:1005200088BFBCF5E06F1ED8BEF1004F08BF5FEA80
:10053000500E50F1000041EB045170BD06F0004632
:1005400046EA010140EA020081EA0301B4EB5C04DF
:10055000C2BFD4EB0C0541EA045170BD41F48011D7
:100560004FF0000E013C00F3AB8014F1360FDEBFFC
:10057000002001F0004170BDC4F10004203C35DAD8
:100580000C341BDC04F11404C4F1200500FA05F35B
:1005900020FA04F001FA05F240EA020001F00042FC
:1005A00021F0004110EBD37021FA04F642EB060172
:1005B0005EEA430E08BF20EAD37070BDC4F10C049C
:1005C000C4F1200500FA04F320FA05F001FA04F260
:1005D00040EA020001F0004110EBD37041F100014C
:1005E0005EEA430E08BF20EAD37070BDC4F1200557
:1005F00000FA05F24EEA020E20FA04F301FA05F2BF
:1006000043EA020321FA04F001F0004121FA04F266
:1006100020EA020000EBD3705EEA430E08BF20EA36
:10062000D37070BD94F0000F0FD101F00046400070
:1006300041EB010111F4801F08BF013CF7D041EAF2
:10064000060195F0000F18BF704703F000465200F6
:1006500043EB030313F4801F08BF013DF7D043EAC7
:100660000603704794EA0C0F0CEA135518BF95EA7D
:100670000C0F0CD050EA410618BF52EA4306D1D104
:1006800081EA030101F000414FF0000070BD50EA23
:10069000410606BF1046194652EA430619D094EAAD
:1006A0000C0F02D150EA013613D195EA0C0F05D197
:1006B00052EA03361CBF104619460AD181EA0301EB
:1006C00001F0004141F0FE4141F470014FF00000A3
:1006D00070BD41F0FE4141F4780170BD70B54FF03E
:1006E000FF0C4CF4E06C1CEA11541DBF1CEA1355BE
:1006F00094EA0C0F95EA0C0F00F0A7F8A4EB0504A0
:1007000081EA030E52EA03354FEA013100F0888096
:100710004FEA03334FF0805545EA131343EA12635F
:100720004FEA022245EA111545EA10654FEA002614
:100730000EF000419D4208BF964244F1FD0404F5CD
:10074000407402D25B084FEA3202B61A65EB030529
:100750005B084FEA32024FF480104FF4002CB6EBE6
:10076000020E75EB030E22BFB61A754640EA0C0066
:100770005B084FEA3202B6EB020E75EB030E22BFA6
:10078000B61A754640EA5C005B084FEA3202B6EBE7
:10079000020E75EB030E22BFB61A754640EA9C00A6
:1007A0005B084FEA3202B6EB020E75EB030E22BF76
:1007B000B61A754640EADC0055EA060E18D04FEA34
:1007C000051545EA16754FEA06164FEAC30343EAD4
:1007D00052734FEAC2025FEA1C1CC0D111F4801FA1
:1007E0000BD141EA00014FF000004FF0004CB6E79A
:1007F00011F4801F04BF01430020B4F1FD0C88BF39
:10080000BCF5E06F3FF6AFAEB5EB030C04BFB6EB43
:10081000020C5FEA500C50F1000041EB045170BD36
:100820000EF0004E4EEA113114EB5C04C2BFD4EB63
:100830000C0541EA045170BD41F480114FF0000EE7
:10084000013C90E645EA060E8DE60CEA135594EA63
:100850000C0F08BF95EA0C0F3FF43BAF94EA0C0F66
:100860000AD150EA01347FF434AF95EA0C0F7FF4DB
:1008700025AF104619462CE795EA0C0F06D152EA2F
:1008800003353FF4FDAE1046194622E750EA410613
:1008900018BF52EA43067FF4C5AE50EA41047FF424
:1008A0000DAF52EA43057FF4EBAE12E74FF0FF3C89
:1008B00006E000BF4FF0010C02E000BF4FF0010C5A
:1008C0004DF804CD4FEA410C7FEA6C5C4FEA430CD3
:1008D00018BF7FEA6C5C1BD001B050EA410C0CBF22
:1008E00052EA430C91EA030F02BF90EA020F002084
:1008F000704710F1000F91EA030F58BF994208BFEB
:1009000090422CBFD8176FEAE37040F001007047A7
:100910004FEA410C7FEA6C5C02D150EA013C07D1FE
:100920004FEA430C7FEA6C5CD6D152EA033CD3D049
:100930005DF8040B704700BF8446104662468C4643
:100940001946634600E000BF01B5FFF7B7FF002876
:1009500048BF10F1000F01BD4DF808EDFFF7F4FF9F
:100960000CBF012000205DF808FB00BF4DF808ED2A
:10097000FFF7EAFF34BF012000205DF808FB00BF4D
:100980004DF808EDFFF7E0FF94BF012000205DF86F
:1009900008FB00BF4DF808EDFFF7CEFF94BF012024
:1009A00000205DF808FB00BF4DF808EDFFF7C4FF1D
:1009B00034BF012000205DF808FB00BF4FEA410C66
:1009C0007FEA6C5C02D150EA013C0AD14FEA430C49
:1009D0007FEA6C5C02D152EA033C02D14FF0000086
:1009E00070474FF0010070474FEA4102B2F1E04317
:1009F00024BFB3F5001CDCF1FE5C0DD901F0004C06
:100A00004FEAC0024CEA5070B2F1004F40EB830055
:100A100008BF20F00100704711F0804F21D113F181
:100A20003872BCBF01F00040704741F480114FEABA
:100A30005252C2F11802C2F1200C10FA0CF320FA43
:100A400002F018BF40F001004FEAC1234FEAD32360
:100A500003FA0CFC40EA0C0023FA02F34FEA4303CA
:100A6000CCE77FEA625307D150EA01331EBF4FF053
:100A7000FE4040F44000704701F0004040F0FE406E
:100A800040F40000704700BF80F0004002E000BF6B
:100A900081F0004142001FBF5FEA410392EA030F69
:100AA0007FEA226C7FEA236C6AD04FEA1262D2EBB3
:100AB0001363C1BFD218414048404140B8BF5B42B8
:100AC000192B88BF704710F0004F40F4000020F051
:100AD0007F4018BF404211F0004F41F4000121F067
:100AE0007F4118BF494292EA030F3FD0A2F10102B1
:100AF00041FA03FC10EB0C00C3F1200301FA03F1EF
:100B000000F0004302D5494260EB4000B0F5000F11
:100B100013D3B0F1807F06D340084FEA310102F1D0
:100B20000102FE2A51D2B1F1004F40EBC25008BF82
:100B300020F0010040EA03007047490040EB00004C
:100B4000013A28BFB0F5000FEDD2B0FA80FCACF14D
:100B5000080CB2EB0C0200FA0CF0AABF00EBC2507A
:100B600052421843BCBFD0401843704792F0000F68
:100B700081F4000106BF80F400000132013BB5E7BB
:100B80004FEA41037FEA226C18BF7FEA236C21D031
:100B900092EA030F04D092F0000F08BF0846704796
:100BA00090EA010F1CBF0020704712F07F4F04D164
:100BB000400028BF40F00040704712F100723CBF77
:100BC00000F50000704700F0004343F0FE4040F4A1
:100BD000000070477FEA226216BF08467FEA23635F
:100BE0000146420206BF5FEA412390EA010F40F44A
:100BF000800070474FF0000304E000BF10F0004396
:100C000048BF40425FEA000C08BF704743F096437C
:100C100001464FF000001CE050EA010208BF704797
:100C20004FF000030AE000BF50EA010208BF70471E
:100C300011F0004302D5404261EB41015FEA010C33
:100C400002BF84460146002043F0B64308BFA3F12B
:100C50008053A3F50003BCFA8CF2083AA3EBC2530D
:100C600010DB01FA02FC634400FA02FCC2F120022C
:100C7000BCF1004F20FA02F243EB020008BF20F063
:100C80000100704702F1200201FA02FCC2F12002C9
:100C900050EA4C0021FA02F243EB020008BF20EABE
:100CA000DC7070474FF0FF0C1CEAD0521EBF1CEAEC
:100CB000D15392EA0C0F93EA0C0F6FD01A4480EADA
:100CC000010C400218BF5FEA41211ED04FF00063C3
:100CD00043EA501043EA5111A0FB01310CF00040EF
:100CE000B1F5000F3EBF490041EAD3715B0040EA15
:100CF000010062F17F02FD2A1DD8B3F1004F40EBE5
:100D0000C25008BF20F00100704790F0000F0CF0B7
:100D1000004C08BF49024CEA502040EA51207F3A7B
:100D2000C2BFD2F1FF0340EAC250704740F4000056
:100D30004FF00003013A5DDC12F1190FDCBF00F047
:100D400000407047C2F10002410021FA02F1C2F1F5
:100D5000200200FA02FC5FEA310040F1000053EA91
:100D60004C0308BF20EADC70704792F0000F00F0DF
:100D7000004C02BF400010F4000F013AF9D040EAE5
:100D80000C0093F0000F01F0004C02BF490011F479
:100D9000000F013BF9D041EA0C018FE70CEAD15377
:100DA00092EA0C0F18BF93EA0C0F0AD030F0004CF7
:100DB00018BF31F0004CD8D180EA010000F00040AB
:100DC000704790F0000F17BF90F0004F084691F069
:100DD000000F91F0004F14D092EA0C0F01D14202A3
:100DE0000FD193EA0C0F03D14B0218BF084608D16C
:100DF00080EA010000F0004040F0FE4040F40000B6
:100E0000704740F0FE4040F4400070474FF0FF0C48
:100E10001CEAD0521EBF1CEAD15392EA0C0F93EA8F
:100E20000C0F69D0A2EB030280EA010C49024FEAE1
:100E3000402037D04FF0805343EA111143EA10139A
:100E40000CF000408B4238BF5B0042F17D024FF452
:100E5000000C8B4224BF5B1A40EA0C00B3EB510F2D
:100E600024BFA3EB510340EA5C00B3EB910F24BF16
:100E7000A3EB910340EA9C00B3EBD10F24BFA3EB9B
:100E8000D10340EADC001B0118BF5FEA1C1CE0D163
:100E9000FD2A3FF650AF8B4240EBC25008BF20F016
:100EA000010070470CF0004C4CEA50207F32C2BF6A
:100EB000D2F1FF0340EAC250704740F400004FF007
:100EC0000003013A37E792F0000F00F0004C02BF38
:100ED000400010F4000F013AF9D040EA0C0093F002
:100EE000000F01F0004C02BF490011F4000F013B5C
:100EF000F9D041EA0C0195E70CEAD15392EA0C0FC4
:100F000008D142027FF47DAF93EA0C0F7FF470AFFB
:100F1000084676E793EA0C0F04D14B023FF44CAF3E
:100F200008466EE730F0004C18BF31F0004CCAD1D3
:100F300030F000427FF45CAF31F000437FF43CAF0F
:100F40005FE700BF4FF0FF3C06E000BF4FF0010C31
:100F500002E000BF4FF0010C4DF804CD4FEA400213
:100F60004FEA41037FEA226C18BF7FEA236C11D05D
:100F700001B052EA530C18BF90EA010F58BFB2EB10
:100F8000030088BFC81738BF6FEAE17018BF40F090
:100F9000010070477FEA226C02D15FEA402C05D144
:100FA0007FEA236CE4D15FEA412CE1D05DF8040BC9
:100FB000704700BF844608466146FFE70FB5FFF75C
:100FC000C9FF002848BF10F1000F0FBD4DF808ED14
:100FD000FFF7F4FF0CBF012000205DF808FB00BF05
:100FE0004DF808EDFFF7EAFF34BF012000205DF85F
:100FF00008FB00BF4DF808EDFFF7E0FF94BF0120AC
:1010000000205DF808FB00BF4DF808EDFFF7D2FFA8
:1010100094BF012000205DF808FB00BF4DF808EDEB
:10102000FFF7C8FF34BF012000205DF808FB00BFB8
:101030004FEA40024FEA41037FEA226C02D15FEAA5
:10104000402C08D17FEA236C02D15FEA412C02D107
:101050004FF0000070474FF0010070474FEA400228
:10106000B2F1FE4F0FD34FF09E03B3EB12620DD9D6
:101070004FEA002343F0004310F0004F23FA02F040
:1010800018BF404270474FF00000704712F1610FE7
:1010900001D1420205D110F0004008BF6FF00040BE
:1010A00070474FF00000704700F1340191E83800BC
:1010B0009C46A6464CF8045D90E8FF0FE54600BD4F
:1010C00090EC210B704700BF80EC210B704700BFF4
:1010D00090EC200B704700BF80EC200B704700BFE6
:1010E000D0EC200B704700BFC0EC200B704700BF56
:1010F000F0EC0201F0EC0211F0EC0221F0EC023114
:10110000F0EC0241F0EC0251F0EC0261F0EC027103
:10111000F0EC0281F0EC0291F0EC02A1F0EC02B1F3
:10112000F0EC02C1F0EC02D1F0EC02E1F0EC02F1E3
:10113000704700BFE0EC0201E0EC0211E0EC02219C
:10114000E0EC0231E0EC0241E0EC0251E0EC026143
:10115000E0EC0271E0EC0281E0EC0291E0EC02A133
:10116000E0EC02B1E0EC02C1E0EC02D1E0EC02E123
:10117000E0EC02F1704700BFB0FC0181B0FC0191CE
:10118000B0FC01A1B0FC01B1704700BFA0FC01811F
:10119000A0FC0191A0FC01A1A0FC01B1704700BF1F
:1011A000EC4600B52DE900502DE9FF1F4FF000037C
:1011B0000CB401A908F034F8DDF840E012B0704733
:1011C000EC4600B52DE900502DE9FF1F4FF000035C
:1011D0000CB401A908F068F8DDF840E012B07047DF
:1011E000EC4600B52DE900502DE9FF1F4FF000033C
:1011F0000CB401A908F07AF8DDF840E012B07047AD
:10120000EC4600B52DE900502DE9FF1F4FF000031B
:101210000CB401AB08F03CF8DDF840E012B07047C8
:10122000EC4600B52DE900502DE9FF1F4FF00003FB
:101230000CB401AA08F0B4F8DDF840E012B0704731
:1012400080EA010C1CF0030F37D110F0030C20F0E2
:10125000030021F0030150F8042B08BF51F8043BB0
:101260000ED08CF0030C6FF07F434FEACC0C23FAC6
:101270000CFC51F8043B42EA0C0243EA0C0300BFA9
:10128000A2F1013C9A4201BF2CEA020C1CF0803F03
:1012900050F8042B51F8043BF2D04FEA02604FEAB9
:1012A0001222012828BFB0EB036F08BF1B0AF4D03D
:1012B00003F0FF03000EC01A704710F0030F0AD0AE
:1012C00010F8012B11F8013B012A28BF9A42F4D0F3
:1012D000A2EB0300704720B450F8042B01F0030583
:1012E00021F0030151F8043B022D27D04ED800BF56
:1012F00022F07F45B5EB132FA2F1013C2CEA020C42
:101300000DD11CF0803C08BF51F8043B0AD185EA9E
:101310000205B5EB036F0CD150F8042BE8E74FEA58
:1013200013235BE03CF07F4C54D10B784FEA1265FD
:1013300054E04FEA126503F0FF034FE04FEA024525
:10134000A2F1013C4FEA15452CEA020CB5EB134F14
:1013500018D11CF0803C08BF51F8043B07D185EA46
:101360000205B5EB034F09D150F8042BE6E75FEA1D
:101370000C4C2FD10B884FEA12452FE04FEA034364
:101380004FEA12454FEA134328E000BF02F0FF0581
:10139000B5EB136FA2F1013C2CEA020C0DD11CF04D
:1013A000803C08BF51F8043B0AD185EA0205B5EB41
:1013B000032F0AD150F8042BE8E74FEA13630DE03E
:1013C00012F0FF0F06D051F8043B4FEA122523F02C
:1013D0007F4303E04FF0000020BC704705F0FF02A0
:1013E00003F0FF00012828BF904204BF2D0A1B0A0A
:1013F000F4D0A2EB000020BC704700BF844641EA55
:10140000000313F0030349D1403A23D30B68036070
:101410004B6843608B688360CB68C3600B69036172
:101420004B6943618B698361CB69C3610B6A03625A
:101430004B6A43628B6A8362CB6AC3620B6B036342
:101440004B6B43638B6B8363CB6BC3634030403127
:10145000403ADBD230320BD30B6803604B684360F9
:101460008B688360CB68C36010301031103AF3D2C0
:101470000C3205D351F8043B40F8043B043AF9D24E
:10148000043208D0D2071CBF11F8013B00F8013B21
:1014900001D30B8803806046704700BF082A13D32E
:1014A0008B07B1D010F00303AED0C3F10403D21AFE
:1014B000DB071CBF11F8013B00F8013BA4D331F856
:1014C000023B20F8023B9FE7043AD9D3013A11F8D6
:1014D000013B00F8013BF9D20B7803704B78437065
:1014E0008B788370604670474A0011D212F5001263
:1014F00011D20DD56FF47873B3EB62520ED44FEA6C
:10150000C12343F0004343EA505323FA02F07047EB
:101510004FF00000704750EA013002D14FF0FF3029
:1015200070474FF0000070470348044B834202D0DD
:10153000034B03B118477047CC080020CC080020AB
:10154000000000000548064B1B1AD90F01EBA30150
:10155000491002D0034B03B118477047CC08002054
:10156000CC0800200000000010B5064C237843B9D9
:10157000FFF7DAFF044B13B10448AFF300800123F7
:10158000237010BDD008002000000000A4F6000861
:1015900008B5054B1BB105490548AFF30080BDE810
:1015A0000840FFF7CFBF00BF00000000D4080020B4
:1015B000A4F6000810B584B00023019302930393AE
:1015C0001D481E4A02604FF480728260012202733D
:1015D00003754FF46022C26143600223036102F08D
:1015E000D7FE00BB0023019301230293072303933B
:1015F00001A9114802F008FDC0B90123019302239B
:1016000002930723039301A90B4802F0FDFC80B964
:10161000094C204602F050FF02220949204602F000
:10162000F1FD04B010BD00F05FFADBE700F05CFAFA
:10163000E3E700F059FAEBE730090020002401400D
:101640006009002010B586B0002302930393049331
:10165000059302681E4B9A4201D006B010BD0446A5
:1016600003F56C439A6942F400729A619A6902F434
:1016700000720092009A9A6942F004029A619B6992
:1016800003F004030193019B03230293039302A934
:10169000104803F01BFF1048104B03600023436009
:1016A00083608023C3604FF4807303614FF48063D1
:1016B0004361202383614FF44053C36103F018FC5E
:1016C00018B9054B23625C62C7E700F00DFAF8E732
:1016D0000024014000080140EC08002008000240FE
:1016E00008B5214B5888FFF785FA01461F48FFF7D8
:1016F0008DFB4FF07E51FFF7CBF91D49FFF7D2FA72
:101700001C49FFF783FBFEF767FE07F071F90EA394
:10171000D3E90023FEF7B8FE0DA3D3E90023FEF7BB
:10172000FDFC02460B460CA1D1E90001FEF7D6FFF5
:10173000FFF75AF9FEF750FE09A3D3E90023FEF79D
:10174000EBFCFFF751F908BD0000006066A2724093
:101750000000000000FEAA4000000080B86F2F418A
:1017600066666666661271406009002000F07F457B
:1017700000404E4500401C4610B58AB02248234B1D
:1017800003600423436000238360C3604FF480221E
:1017900002614FF4001242610376437601228276A1
:1017A000C3760377437702F009FF30BB002305932C
:1017B00006930122079200930193029303930493EB
:1017C00008920E23099369460F4802F09DFFB8B9AD
:1017D0000D4C204603F020F80D49204603F099F9FE
:1017E0000C4B5A680C4B1A6000225A60DA609A60FF
:1017F000082119611A750AB010BD00F075F9D5E716
:1018000000F072F9E4E700BF900900200064004096
:101810007F8F030078160020E009002000B587B014
:101820000023029303930493059302682A4B9A4280
:1018300001D007B000BD03F5D633DA6942F000727B
:10184000DA61DA6902F000720092009A9A6942F055
:1018500008029A619B6903F008030193019B4FF40E
:101860008073029302A91D4803F030FE4FF4007309
:101870000293022303930323059302A9174803F05D
:1018800025FE174A536823F4C04343F0E06343F452
:101890008043536000220321132003F0D7FA132062
:1018A00003F0E4FA00220321142003F0CFFA1420FD
:1018B00003F0DCFA00220321152003F0C7FA1520FB
:1018C00003F0D4FA00220321162003F0BFFA1620F9
:1018D00003F0CCFAADE700BF00640040000C01400B
:1018E0000000014008B50A46044B0146044802F0D6
:1018F000C1FF00B908BD00F0F7F8FBE7B809002008
:101900009009002008B50E4B0E4A002103F03EF866
:1019100090B90C4B1868C309C0F3C71200F07F00E0
:1019200022B1094A5268DBB29A4204D1054B1A69C6
:10193000034906F089FB08BD00F0D6F8E9E700BFCF
:10194000BC090020C40900207816002000B583B02F
:10195000114B5A6942F001025A615B6903F00103BD
:101960000193019B002211460B2003F06FFA0B201C
:1019700003F07CFA002203210E2003F067FA0E2008
:1019800003F074FA002203210F2003F05FFA0F2006
:1019900003F06CFA03B000BD001002402DE9F047DF
:1019A00088B004AD00240494059406940794494B30
:1019B0009A6942F010029A619A6902F0100200924C
:1019C000009A9A6942F020029A619A6902F0200214
:1019D0000192019A9A6942F004029A619A6902F0AE
:1019E00004020292029A9A6942F008029A619B6983
:1019F00003F008030393039BDFF8DCA022464FF4B7
:101A0000C041504603F05BFE344F22463C2138462D
:101A100003F055FEDFF8C89022460221484603F045
:101A20004EFE01224FF40041384603F048FE4FF4C9
:101A3000C04304930126059606944FF00208CDF8A2
:101A40001C802946504603F041FD3C230493059633
:101A50000694032307932946384603F037FD802375
:101A60000493204B059306942946384603F02EFD37
:101A70000496059406942946484603F027FDCDF8C0
:101A8000108005960694CDF81C802946484603F040
:101A90001DFD41F204030493059406962946484629
:101AA00003F014FD4FF40043049305960694CDF81B
:101AB0001C802946384603F009FD4FF4E063049387
:101AC000059406962946384603F000FD08B0BDE8A7
:101AD000F08700BF001002400010014000080140E4
:101AE000000C01400000311072B6FEE710B594B052
:101AF0000AAC28220021204609F01EFF002305938E
:101B00000693079308930993019302930393049315
:101B100001220A924FF480330B930E92022211920B
:101B200012934FF480131393204603F0E5FDB8B9E8
:101B30000F2305930221069107904FF480620892CB
:101B4000099005A804F020F860B9022301934FF42E
:101B50000043039301A804F0F3F828B914B010BDB2
:101B6000FFF7C2FFFFF7C0FFFFF7BEFF08B502F0A7
:101B7000D5F9FFF7BBFFFFF711FFFFF7E7FEFFF710
:101B800019FD00F09BFBFFF7F7FD00F00BF800F0EC
:101B9000BFFA00F087F900F0D9F900F04BF906F030
:101BA00067F9FEE708B51048104B03604FF48273E5
:101BB0004360002383604FF40062C260022202612E
:101BC000012242614FF4007282611022C2610362FD
:101BD000436283620A23C36204F038FA00B908BD85
:101BE000FFF782FFFBE700BFF8090020003001404B
:101BF00000B587B000230293039304930593026812
:101C0000194B9A4201D007B000BD03F560439A69B1
:101C100042F480529A619A6902F480520092009ACA
:101C20009A6942F008029A619B6903F008030193E4
:101C3000019B28230293022303930323059302A904
:101C40000A4803F043FC10230293002303930493F8
:101C500002A9064803F03AFC054A536843F0E063E2
:101C600043F001035360CEE700300140000C014017
:101C70000000014082B00E4B9A6942F001029A6165
:101C80009A6902F001020092009ADA6942F08052E9
:101C9000DA61DB6903F080530193019B054A5368C5
:101CA00023F0E06343F00073536002B0704700BF5D
:101CB0000010024000000140FEE7FEE7FEE7FEE7FD
:101CC000FEE770477047704708B502F039F908BD64
:101CD00008B5024803F0ECF908BD00BFEC0800208D
:101CE00008B5024803F0E4F908BD00BF740B0020FA
:101CF00008B5024803F0DCF908BD00BFB80B0020AE
:101D000008B5024802F023FF08BD00BF900900207B
:101D100008B5024802F01BFF08BD00BF9009002073
:101D200008B5024802F013FF08BD00BF900900206B
:101D300008B5024802F00BFF08BD00BF9009002063
:101D4000704708B505F0F0FF08BD704708B506F00C
:101D500031F808BD10B582B0194B1B681A6812F033
:101D6000100F04D1164805F081FA02B010BD002210
:101D700001921A6801925B680193019B104805F07B
:101D800099F9104B1B685B68C3F1FF2303F57F03D0
:101D90008033DBB20C4C237021780C4B1B680C4851
:101DA0009847227800210A4809F0C6FD4FF0000349
:101DB000237080220649024805F0D0FBD2E700BF1D
:101DC000FC0B0020B80B0020C40C0020400C0020AD
:101DD000440C00200120704708B509F01FFF1623AE
:101DE00003604FF0FF3008BD08B54FF0FF31FFF73B
:101DF000F3FFFEE708B503460B4A126842B10A4AF0
:101E0000106803446A46934206D8074A136008BD27
:101E1000054A06491160F2E709F000FF0C23036050
:101E20004FF0FF30F3E700BF500A0020C819002030
:101E30007047000000B587B000230293039304931A
:101E40000593009301931548154A026047224260AA
:101E5000836042F20F72C260036143618023836139
:101E600004F000FC88B94FF48053029302A90B4898
:101E700004F0B3FD60B9002300930193694607485D
:101E800004F006FF38B907B000BDFFF72DFEEAE702
:101E9000FFF72AFEEFE7FFF727FEF4E72C0B002001
:101EA000002C014000B58DB00023079308930993DF
:101EB0000A930B9305930693019302930393049360
:101EC0002048214A02604722426083604FF6FF7239
:101ED000C2600361836104F0C5FB20BB194804F0B4
:101EE00019FC18BB0423079350230893002309937C
:101EF0000B9307A9134804F029FED0B900230593DA
:101F0000069305A90F4804F0C3FEA8B90022019268
:101F1000012302930392049201A90A4804F0F8FCF9
:101F200068B90DB000BDFFF7DFFDD7E7FFF7DCFDB7
:101F3000D8E7FFF7D9FDE1E7FFF7D6FDE6E7FFF7C2
:101F4000D3FDEEE79C0A00200004004000B587B0F6
:101F50000023029303930493059300930193144881
:101F6000144A02604722426083603122C2600361EA
:101F70008023836104F076FB88B94FF48053029389
:101F800002A90B4804F029FD60B9002300930193D6
:101F90006946074804F07CFE38B907B000BDFFF77A
:101FA000A3FDEAE7FFF7A0FDEFE7FFF79DFDF4E7EC
:101FB000540A00200008004000B589B000230493B3
:101FC0000593069307930368294A934207D0294A49
:101FD000934217D0284A934236D009B000BD274B10
:101FE0009A6942F400629A619B6903F4006300936A
:101FF000009B00220521192002F028FF192002F081
:1020000035FFEAE71D4BDA6942F00202DA61DA696C
:1020100002F002020192019A9A6942F004029A6166
:102020009B6903F004030293029B4023049304A9D9
:10203000134803F04BFA002211461D2002F006FF60
:102040001D2002F013FFC8E70C4BDA6942F00402CE
:10205000DA61DB6903F004030393039B002211465A
:102060001E2002F0F3FE1E2002F000FFB5E700BFC5
:10207000002C014000040040000800400010024015
:10208000000801400368B3F1804F00D0704782B070
:1020900003F50433DA6942F00102DA61DB6903F027
:1020A00001030193019B02B07047000000B587B0A7
:1020B000002302930393049305930368B3F1804FC5
:1020C00001D007B000BD03F504339A6942F008025D
:1020D0009A619B6903F008030193019B4FF44063ED
:1020E0000293022303930323059302A9064803F0F6
:1020F000EDF9064A536823F4407343F0E06343F478
:1021000000735360DDE700BF000C01400000014098
:1021100010B58AB0002308930993019302930393A7
:10212000049305930693079320484FF08042026082
:102130004360836040F2FF32C2600361836104F058
:10214000BDFA38BB00230893099308A9174804F087
:102150009FFD10BB6023019300230293039305931B
:10216000082201A9114804F03BFBC8B90C2201A9BF
:102170000E4804F035FBB0B90C4C0821204604F0A1
:102180001DFD0C21204604F019FD2046FFF78EFFAF
:102190000AB010BDFFF7A8FCD4E7FFF7A5FCD9E70C
:1021A000FFF7A2FCE2E7FFF79FFCE5E7E40A002067
:1021B00070B586B0002302930393049305930268DD
:1021C000344B9A4201D006B070BD044603F5584323
:1021D0009A6942F480429A619A6902F480420092BC
:1021E000009A9A6942F008029A619B6903F0080319
:1021F0000193019B4023029302230393032305933E
:1022000002A9254803F062F980260296002503956D
:10221000049502A9204803F059F9204A536843F075
:10222000E06343F0040353601D481E4B03604560A8
:102230008560C6600561456185614FF48053C36167
:1022400002F056FE00BB164BA3635C621648174BA8
:10225000036010234360002383608022C260036117
:10226000436183614FF48053C36102F041FE70B952
:102270000D4B63635C6200220321252002F0E6FD22
:10228000252002F0F3FD9EE7FFF72EFCDBE7FFF7CA
:102290002BFCEDE700380140000C0140000001403C
:1022A000B80B002058000240740B0020440002408C
:1022B000014B1860704700BF400C002010B5134858
:1022C000134B03604FF4E133436000238360C3602A
:1022D00003610C2242618361C36104F0DEFD88B9B1
:1022E0000A4C2268D36843F01003D360204605F0FF
:1022F000FDF90848FFF7DCFF80220749204605F07A
:102300002DF910BDFFF7F0FBEAE700BFFC0B002042
:102310000038014049860008440C0020704770478F
:1023200070477047704710B5044603685B6998476B
:1023300023689B692046984710BD000010B50446ED
:10234000C1F30901818001F58073C3F3090343815F
:10235000DFF8BCC03CF9133083813CF911C0A0F810
:1023600006C082EAE27EAEEBE27E41F2DB3202FBA5
:102370000EFECEF30B3E83EAE371A1EBE37189B26B
:102380000EFB01F1C1F30F31C1818CEAEC72A2EBBB
:10239000EC7292B20EFB02F2C2F30F3202810368BA
:1023A0001B699847B4F90C30002B10DD23681B6AB9
:1023B0000022012120469847B4F90630002B16DD93
:1023C00023685B6A002201212046984710BD002B3C
:1023D00006DB23681B6A0122114620469847EBE77B
:1023E00023681B6A0122002120469847E4E7002B5E
:1023F00006DB23685B6A0122114620469847E5E721
:1024000023685B6A0122002120469847DEE700BF6F
:102410003CF7000808B50368DB69984708BD38B584
:1024200004460025C581058103681B692A462946A3
:10243000984723681B6A2A462946204698472368FE
:102440005B6A2A4629462046984738BD10B504469F
:102450000021C181018103681B690A4698472368EE
:102460001B6A012211462046984723685B6A0122B5
:1024700011462046984710BD0023C3600161704794
:10248000C3681944C1600369D0F804C0DCF80020B7
:1024900091FBF2F213440361DCF8003091FBF3F29C
:1024A00003FB1211C160704738B504460D4603693D
:1024B000CA1A03D121612369236038BD002A15DDC2
:1024C000002B09DB8168FFF7DBFF2369AB42F2DBFE
:1024D0000023E3602561EEE78168FFF7D1FF236900
:1024E000002BE8DB0023E3602361E4E7002AE2DA63
:1024F000002B0ADD81684942FFF7C2FF2369002BE8
:10250000D9DC0023E3602361D5E781684942FFF706
:10251000B7FF2369AB42CEDC0023E3602561CAE745
:102520008160704708B54368D3F8B4305969FFF744
:10253000F7FF08BD8160704708B54368D3F8B43031
:102540001969FFF7F7FF08BD0023C36001617047F9
:10255000C3681944C1600369D0F804C0DCF80020E6
:1025600091FBF2F213440361DCF8003091FBF3F2CB
:1025700003FB1211C160704738B504460D4603696C
:10258000CA1A03D121612369236038BD002A15DDF1
:10259000002B09DB8168FFF7DBFF2369AB42F2DB2D
:1025A0000023E3602561EEE78168FFF7D1FF23692F
:1025B000002BE8DB0023E3602361E4E7002AE2DA92
:1025C000002B0ADD81684942FFF7C2FF2369002B17
:1025D000D9DC0023E3602361D5E781684942FFF736
:1025E000B7FF2369AB42CEDC0023E3602561CAE775
:1025F00010B504460846E1602161FEF7FFFA014686
:102600004FF07C50FEF702FC606110BD10B504462F
:102610008368D3F8B4301969FFF7EAFFA368D3F8E9
:10262000B4301B69034A82FB0312DB17C3EBA2130E
:10263000A36110BDD34D62100023C36102624362E7
:1026400081627047436A19444162836AD0F808C0C6
:10265000DCF8002091FBF2F213448362DCF80030D6
:1026600091FBF3F203FB121141627047C3691944F5
:10267000C161036AD0F808C0DCF8002091FBF2F2D7
:1026800013440362DCF8003091FBF3F203FB1211F8
:10269000C1617047F8B50446836ACB1A2FD1036A2B
:1026A000826951428B4206DB934204DC0023C36102
:1026B0000362436203E0002B0ADC002B14DB216A77
:1026C0002046FFF7BFFFA36A2360236A6360F8BD5B
:1026D000216949422046FFF7C9FF236A002BEEDC3F
:1026E0000023E3612362EAE721692046FFF7BEFF8A
:1026F000236A002BE3DB0023E3612362DFE7194653
:10270000036A1A4653B9002903DDC168FFF7AEFF1B
:10271000D5E7C1684942FFF7A9FFD0E70D46002978
:1027200044DD002B42DD8368D3F8B430DF68164601
:10273000BA4230DC1046FEF761FA0146FEF7B2FA03
:102740006169FEF7AFFAFEF789FC2946002DB8BF94
:102750006942884213DABE42B1DAE1682046FFF7E7
:1027600085FF216AA368D3F8B420D2689142A6DB22
:102770000022E261D3F8B430DB6823629FE721696D
:1027800049422046FFF772FF236A002B97DC0023A3
:10279000E361236293E701694942FFF767FF236A18
:1027A000002B8CDC0023E361236288E70D460029BF
:1027B0000FDB002983DD002A81DA21692046FFF73B
:1027C00055FF236A002BFFF67AAF0023E3612362F3
:1027D00075E7002A0EDB002AEBDD2169494220461D
:1027E000FFF744FF236A002B3FF769AF0023E36143
:1027F000236264E7A368D3F8B430DB685B421F460A
:1028000016469A4235DB1046FEF7F8F90146FEF708
:1028100049FA6169FEF746FAFEF720FC2946002DC9
:10282000B8BF6942814218DDBE427FF748AFE16818
:1028300049422046FFF71AFF216AA268D2F8B43055
:10284000DB685B4299423FF73AAF0023E361D2F87D
:10285000B430DB685B42236231E721692046FFF731
:1028600005FF236A002BFFF62AAF0023E3612362F2
:1028700025E721692046FFF7F9FE236A002BFFF6C2
:102880001EAF0023E361236219E7C160016141616A
:10289000C2617047C2680261C160A1EB020C82682C
:1028A0001368C269C2EB821203FB0C2283691344D2
:1028B00083619A11C26103F03F038361416101604A
:1028C00042607047C16070470023436103778362B1
:1028D000C262036341637047836A19448162C36AB9
:1028E000D0F808C0DCF8002091FBF2F21344C36278
:1028F000DCF8003091FBF3F203FB121181627047A8
:10290000036B19440163436BD0F808C0DCF8002066
:1029100091FBF2F213444363DCF8003091FBF3F2D5
:1029200003FB1211016370472DE9F84304460D467D
:102930001646036A934230D00027676126626562BB
:10294000D4F82C8008EB0600FEF758F98146A6EB78
:102950000800FEF753F901464846FEF7A3F906467C
:10296000636BED1A6800FEF749F901463046FEF741
:102970004DFAFEF773FB20612777237F002B38D0B9
:10298000E36AEBB9A362E16A2046FFF7B9FF636B24
:102990002360E36A6360BDE8F883436A8B42CBD16E
:1029A000426983694FF47A7101FB03F39A4202DBB7
:1029B00001230377E1E783685B681A444261DCE73F
:1029C000002B0BDDE16849422046FFF785FFE36AF3
:1029D000002BD8DC0023A362E362D4E7E168204641
:1029E000FFF77AFFE36A002BCDDB0023A362E362EB
:1029F000C9E721692046FFF76FFFC4E738B50446F1
:102A00000D468368D3F8B4301969FFF75BFFA56101
:102A100038BD10B50446C0F8B4100830FFF782FD89
:102A200004F11C00FFF788FD04F13000FFF7EEFD14
:102A3000C82104F17C00FFF7E1FF10BDC0F844118C
:102A40007047C0F84811704710B503460A46016345
:102A500000290CDD816A80684068014459659968E5
:102A6000D1F8480101684C68596DA04710BD002994
:102A700002DB816A4165F2E7816A80684068091A71
:102A80005965ECE710B503681A695A61C2690368B1
:102A9000891A196103681A69B2F5801F02DD4FF4C3
:102AA00080121A6103681A6912F5801F01DA274A39
:102AB0001A6103685A68196901FB02F29A61036896
:102AC0005A6A99681C6904FB01225A620268536AB7
:102AD0009B12936203685A6A996AA2EB81225A6236
:102AE0000368DA69996A0A44DA610168D1F81CC09E
:102AF00083685A699302BCEB822F1CDDCB610368AB
:102B0000DA6819695C69091B01FB02F21A62026842
:102B10009369D1690B44116A0B449B12D36202681A
:102B2000D16A83685B6999420ADDD3620368D96A16
:102B3000FFF78AFF10BD5B429C45E0DACB61DEE720
:102B40005B429942F2DAD362F0E700BF0000F0FF87
:102B500010B50368846A091B19640368196CB1F520
:102B6000486F02DD4FF4486119640368196C11F570
:102B7000486F01DA32491964C369D21A0368D21165
:102B80005A6403685A6CB2F57A6F02DD4FF47A62C8
:102B90005A6403685A6C12F57A6F01DA294A5A644A
:102BA00003681A6B196C01FB02F29A640368596D91
:102BB0005A6B5C6C04FB02F29C6BD3F840C00CFBBC
:102BC0000422114459650268536DDB119365036853
:102BD0005A6D996DA2EBC1125A650368DA6C996D52
:102BE0000A44DA640168D1F84CC083685A699302D8
:102BF000BCEB822F1ADDCB640368DA6B596C01FBE6
:102C000002F21A650268936CD16C0B44116D0B448F
:102C10009B12D3650268D16D83685B6999420ADDB6
:102C2000D3650368D96DFFF70FFF10BD5B429C456C
:102C3000E2DACB64E0E75B429942F2DAD365F0E78F
:102C400080F3FFFF60F0FFFF017170478368DB686E
:102C50000B444363704700002DE9F84F04460E46CD
:102C600015464369CB1A8768FA68134483EAE37808
:102C7000A8EBE378F869FDF7C1FF82462946FEF725
:102C800011F883462946FEF70DF84FF07A51FEF70A
:102C900009F881464046FDF7B1FF80464946FEF7F8
:102CA000BDF948B1184B5B69BB6131462046FFF75F
:102CB000CDFF0020BDE8F88F29462846FDF7F2FF3A
:102CC00005464FF081414046FDF7ECFF5146FEF7C7
:102CD0009DF801462846FDF7DBFE05F0BFFE0146E4
:102CE0005046FDF7DFFF01465846FDF7D1FE4FF095
:102CF0007C51FDF7D7FFFEF7B1F9B86131462046A8
:102D0000FFF7A4FF0120D5E77816002083689B69B0
:102D10005A428A4202DC8B4200DB8163704738B53D
:102D200071B1C2688468E068101AFDF767FF054654
:102D3000A068FDF763FF01462846FEF767F838BD37
:102D400042698468E068101AFDF758FF0546A068DC
:102D5000FDF754FF01462846FEF758F8EFE738B56F
:102D60000446C069FDF74AFF0546A3689868FDF769
:102D700045FF01462846FEF749F838BD08B5006B07
:102D8000FDF73CFF0149FEF741F808BD00007A4419
:102D900083685B698B4201DAC36370475B428B4295
:102DA00001DDC3637047C163704700238365C3714E
:102DB00070470000002813DB314B98425DDD314B3A
:102DC00098423CDAA0F5C330A0384FF4837303FB7C
:102DD00000F00015B0F5D77F16DD4FF4D77013E083
:102DE000294B984245DAA3F59213A3F578639842EC
:102DF0000BDB00F5C330A0304FF4837303FB00F00E
:102E0000001510F5D77F36DB7047204B98420BDB5F
:102E100000F59E1000F5B150C0EBC000C0EB0010F3
:102E20000015A0F59670ECE700F5061000F58E5041
:102E3000342303FB00F00015A0F5C370E1E7144B49
:102E400098420BDAA0F59E10A0F5B150C0EBC0007F
:102E5000C0EB0010001500F59670BBE7A0F506105A
:102E6000A0F58E50342303FB00F0001500F5C3706D
:102E7000B0E700207047074870470020704700BF48
:102E80009F86010020D613006179FEFF416EDEFFB0
:102E9000C091210052FEFFFF264B93F834300BB156
:102EA000244B1B7B0371002343718371C360036157
:102EB000436183610362C36143628362C362826868
:102EC000D26842638363C36380F8403080F8413046
:102ED00043648364C36480F8503080F8513080F8D4
:102EE0005230436503638365C371C36580F8603006
:102EF0000268136102685361026893610268D361DA
:102F00000268136202685362026893620268D362C5
:102F10000268136402685364026893640268D364AD
:102F20000268136502685365026893650268D36599
:102F3000704700BF7816002043698268916893FB50
:102F4000F1F001FB1033D3607047016070470268F5
:102F500000235362026893620268D361026853657A
:102F6000026893650268D3647047000038B5044670
:102F7000A44B1B78002B40F0BA80D0F84031DA68BF
:102F80001A61D0F84421D0F84031D288DA60D0F804
:102F90004021D36811695B1A8168B3EB610F40F37C
:102FA000CD805B1A51699161D4F840114A691A4485
:102FB0004A61D4F84021116A53699069181AD4F80B
:102FC0008850D369C3EB431305FB003319441162E6
:102FD000D4F84021136A5B11D361D4F840311A6AE6
:102FE000D969A2EB41121A62D4F84051E869FFF79F
:102FF000E1FE6862D4F840315A69596A0A449A621B
:10300000D4F840315A6C996A521ADA62D4F84031D5
:10301000DA7952B993F850303BB9D4F844010368D7
:103020009B689847002840F09080D4F84001FFF753
:103030008EFFD4F8402100235365D4F84021136358
:10304000D4F8480103689B689847D4F8403159790F
:103050001A79914205D05A71D4F84031012283F88F
:103060005220D4F84021916BA369994240F3C48067
:103070009363D4F84021D16B6369994240F3C480D3
:10308000D363D4F8403193F8502012B193F8402024
:103090002AB193F851202AB193F8412012B90122A4
:1030A00083F85220D4F8403193F85220002A40F09F
:1030B000B180D4F840114B79052B00F0818100F2EA
:1030C0001781032B00F0718100F2FF80012B00F0CB
:1030D0002081022B40F02C81896B04F1A400FFF7C2
:1030E0004BFAD4F84031D4F8A4209A6420E1C268A5
:1030F000816801EBD1735810B2EB630F16DAD4F884
:103100004431DB880244934200DD5B1AD4F840214D
:10311000D360D4F840211361D4F840215361D4F82E
:1031200040219361374B00221A7038BDD4F84431E6
:10313000DB88121A9342E9DA0B44E7E74842B3EB23
:10314000600FBFF62FAF0B442CE7D4F8400190F886
:1031500051307BB94379042B3CD01AD9072B42D08C
:103160002AD8052B43D0062B7FF46FAF816CFFF775
:1031700089FC6AE7FFF7EBFED4F840210023536592
:10318000D4F840211363D4F848010368DB689847FA
:103190005BE7022B23D008D8B3B1012B7FF455AFE6
:1031A000826C416CFFF7D4FC4FE7032B7FF44DAFEB
:1031B000C16CFFF749FC48E7082B7FF446AF826CEF
:1031C000416CFFF7C5FC40E7D4F8480103689B68F1
:1031D00098473AE7826C416CFFF7BAFC35E7816C9F
:1031E000FFF750FC31E7C16CFFF72EFC2DE7826C36
:1031F000416CFFF7ADFC28E75B429942BFF639AF5F
:10320000936336E7040000205B429942BFF639AF72
:10321000D36336E7002283F85220D4F84001FFF749
:1032200096FED4F84001FFF7C0FDD4F840114B7969
:10323000052B32D017D8032B29D00AD8012B1FD049
:10324000022B7FF436AFC96904F1A400FFF77CF9C3
:103250002FE7042B7FF42DAFCA69896A04F58270C9
:10326000FFF732FB25E7072B1ED0082B22D0062BB9
:103270007FF41FAFC96904F1A400FFF765F918E7EF
:10328000CA69896A04F1B800FFF7D6F911E7096B3A
:1032900004F19000FFF7F0F80BE7CA69896A04F1BE
:1032A000B800FFF7C9F904E7096B04F19000FFF7D4
:1032B000E3F8FEE6CA69896A04F1E400FFF7E5FA7B
:1032C000D4F840319A6A5A63F3E6042B30D18A6B02
:1032D000496B04F58270FFF727FBD4F84031D4F82E
:1032E00004215A64D4F84031D4F808219A641FE0CC
:1032F000072B75D0082B7ED0062B19D1896B04F1D2
:10330000A400FFF739F9D4F84031D4F8A4209A6426
:103310000EE0496B04F1B800FFF7BCF9D4F8403176
:10332000D4F8B8205A64D4F84031D4F8BC209A6458
:10333000D4F8403193F8402083F85020D4F840313D
:1033400093F8412083F85120D4F840311A6B82EA77
:10335000E270A0EBE270196891F8601049B15979F8
:10336000032958D0072956D06269824255D00022DD
:103370009A65D4F840315A79032A04D0072A02D03A
:103380006269824263D00022DA65D4F8403183F862
:103390006020D4F8440103689B689847002863D1F3
:1033A000D4F8403105229A71BFE6C96B04F1900050
:1033B000FFF77AF8D4F84031D4F89020DA64B7E710
:1033C000496B04F1B800FFF765F9D4F84031D4F83F
:1033D000B8205A64D4F84031D4F8BC209A64A7E7E6
:1033E000C96B04F19000FFF75FF8D4F84031D4F8CE
:1033F0009020DA649CE7496B04F1E400FFF74AFA95
:10340000D4F84031D4F8E4205A64D4F84031D4F8E8
:10341000E8209A648CE7002AA6D0DA6982EAE27191
:10342000A1EBE271A2682E4D85FB02C5D217C2EB5B
:10343000650291429DDA9A6D2A498A4202D9012297
:10344000DA7196E7D4F88C100A449A6591E7DA6D40
:1034500024498A4203D9012283F8602099E7D4F8ED
:103460008C100A44DA6594E7D4F840315A790AB9E5
:103470009A715AE6D97911B104229A7155E693F8F6
:10348000601011B103229A714FE6012A06D0022A78
:1034900011D0032A19D001229A7146E6596C5A6B51
:1034A000914202D002229A713FE69A6C002AF9D129
:1034B00001229A7139E6996C9A6B914202D00222EC
:1034C0009A7132E601229A712FE6D96CDA6B914239
:1034D00002D002229A7128E601229A7125E600BFE5
:1034E000676666663F420F0010B50446D0F8440197
:1034F00003685B6898472046FFF738FD10BDF0B5BC
:1035000006460D4607883846012304E061460DE073
:10351000084401339BB2AB420FD236F813C0ACEB78
:10352000070EBEEB620FF1DDACEB02015442BEEBC5
:10353000640FEDDA02EB0C01EAE790FBF5F00028EE
:1035400003DB904200DD801AF0BD1044F9E770B54E
:1035500004468368D3F8440103685B689847637B3B
:10356000032B00F090801DD8012B38D0022B4BD0BC
:10357000002B40F0E6802379002B00F0E280A26867
:10358000D2F8480103685B68126921699847A3680B
:103590009B6823610023E382012363734FF00003E0
:1035A0002373CEE0052B00F08680062B00F0C1804F
:1035B000042B40F0C680216901392161A268D2F84C
:1035C000480103685B68126998472369A26892689A
:1035D000B3EB420F40F0B58005236373B1E021697E
:1035E00002312161A268D2F8480103685B68126960
:1035F00098472269A3689B68B2EB430F40F0A18013
:103600002361022363739CE0236919461E46A06868
:1036100005464268B3FBF2F302FB131303BBD0F879
:1036200044319988E28A531C9BB2E3820C3224F81D
:103630001210102B17D1D0F84431DA68102104F1A0
:103640001800FFF75CFFAB68F31A6A68B3FBF2F38C
:103650001C3324F813000023E382731C236102E06F
:103660000B4601332361D5F8480103685B682A697A
:10367000216998472369A2689268B3EB420F60D929
:10368000032363735DE0216901312161A268D2F8EF
:10369000480103685B68126998472169A3689A68C2
:1036A0005B6803EB830302EB4303B1EB430F48D1A9
:1036B0000423637345E0236919461E46A068054646
:1036C0004268B3FBF2F302FB13130BBBD0F8443197
:1036D0009988E28A531C9BB2E3820C3224F81210C0
:1036E000102B17D1D0F84431DA68102104F11800FA
:1036F000FFF705FFAB68F31A6A68B3FBF2F3E43334
:1037000004EB430358800023E382731E236101E02E
:103710004B1E2361D5F8480103685B682A6921695B
:1037200098472269A3689B689A420AD2062363736A
:1037300007E0A368D3F8480103685B6800221146DC
:10374000984770BD0844B0FBF1F301FB13007047CC
:10375000401AB0EB620F00DD801A5342B0EB630FEA
:1037600000DA10447047431A08444010002BB8BFD9
:103770005B425110B3EB620F04DD814201DC401A61
:1037800070470844704700002DE9F84305468768F4
:10379000D7F84431D3F80C90684B83FB09234FEAE8
:1037A000E978C8EBA318002410E004F11C0604F12A
:1037B000E40305EB4303D7F84421D268598835F870
:1037C0001600FFF7D0FF25F816000134C82CECD9FD
:1037D000D7F84431DA68B5F8C611288FFFF7B8FF7B
:1037E000064630B10028D4BF002301232B750124E5
:1037F0000FE001232B73BDE8F88302232B73FAE754
:1038000002232B73F7E701232B73F4E700282CDB4B
:103810000134C72C2ED804F11C0304F11B01D7F886
:103820004421D26835F8111035F81300FFF790FFE6
:1038300080EAE071A1EBE07108EB480303EBD3737E
:10384000B1EB630FD9DC3D4A82FB09324FEAE973E1
:10385000C3EBE2139942D3DB0028D4D00028D5DD96
:10386000002ED3DC01232B73C5E7002ED0DD01230E
:103870002B73C0E7002E03DD4FF00008444604E040
:103880004FF000094C463AE03446C72C1ED8661C5F
:10389000C8213046FFF756FF1C3035F81090C8217C
:1038A0002046FFF74FFF1C3035F81020A9EB02032C
:1038B000002BE9DA08F10108C5F85C43D7F8443178
:1038C000DB68013B9B1AC5F86033DDE7B8F1010FF7
:1038D00031D003232B738EE709F10109C5F85C434E
:1038E000D7F84431DE68013EC8214046FFF72AFF81
:1038F0001C3035F81030F61AC5F860634446C72C02
:1039000013D804F10108C8214046FFF71BFF1C3003
:1039100035F81060C8212046FFF714FF1C3035F839
:103920001030F61A002ED7DCE8E7B9F1010F02D00B
:1039300003232B735FE700232B735CE71F85EB5199
:103940002DE9F84F437B062B40F034810446836811
:10395000D3F8480103689B6898472046FFF714FF97
:10396000237B002B40F01581C4F8643323689B68E7
:103970002046984723681B6820469847237D002BE4
:1039800079D0D4F85C7336E0D4F8605315E0A268BF
:10399000506805FB00F393FBF6F3916807FB0030DA
:1039A000FFF7D0FE2368DB6881B220469847D4F841
:1039B00064330133C4F864330135B542E7DB19E001
:1039C000A268506805FB00F393FBF6F3916807FBD0
:1039D0000030FFF7B7FE2368DB6881B220469847C6
:1039E000D4F864330133C4F864330135D4F8603358
:1039F000AB42E5DC4746D4F85C93A668356809EB32
:103A0000050ABA45C0F2B78007F1010829464046C9
:103A1000FFF798FE1C3034F810B029463846FFF7FF
:103A200091FE1C30D6F84431DA6834F8101058464C
:103A3000FFF78EFE0646B945A6D0BA4519D0002537
:103A4000B542D7DAA268506805FB00F393FBF6F3A2
:103A5000916807FB0030FFF775FE2368DB6881B2D1
:103A600020469847D4F864330133C4F864330135F1
:103A7000E6E70025BAE7D4F85C23A3681B6802EBED
:103A8000030839E0D4F8605316E0A268536803FBDA
:103A900007F005FB03F393FBF6F39168C01AFFF7F9
:103AA00051FE2368DB6881B220469847D4F864331E
:103AB0000133C4F864330135B542E6DB1AE0A2688D
:103AC000536803FB07F005FB03F393FBF6F39168E0
:103AD000C01AFFF737FE2368DB6881B2204698479B
:103AE000D4F864330133C4F864330135D4F8603357
:103AF000AB42E4DC08F1FF38D4F85C93C1453ADC12
:103B0000A668356829464046FFF71CFE1C3034F88D
:103B100010A008F1010729463846FFF713FE1C30B4
:103B2000D6F84431DA6834F810105046FFF710FE2A
:103B300006464D444545A5D0C1451AD00025B5429D
:103B4000D8DAA268536803FB07F005FB03F393FB85
:103B5000F6F39168C01AFFF7F5FD2368DB6881B2C0
:103B600020469847D4F864330133C4F864330135F0
:103B7000E5E70025BAE723685B6820469847D4F854
:103B80006423A368D3F84431DB689A4201D004234C
:103B90002373237B83B9A368D3F8443101221A72BB
:103BA000A368D3F840310122DA71002363732371D3
:103BB000237B5BB1BDE8F88FA368D3F844310022C2
:103BC0001A7223689B6820469847E9E701F05CF980
:103BD000F0E7704710B504460368DB689847236830
:103BE0005B682046984701232372002300E00133DD
:103BF000E2689A4209D9A26932F813104FF6FF72AF
:103C00009142F4D100222272F1E7207A10BD38B53A
:103C100004464FF4034383834FF40443C3830025D6
:103C200017E00133DBB20F2B0AD841FA03F212F08E
:103C3000010FF6D094F82420013284F82420F0E714
:103C400094F8243013F0010F1BD000236375013565
:103C5000EDB2022D17D823681B69A18B2046984727
:103C6000208423681B69E18B204698476084238C5D
:103C7000C1B241EA032189B22182002384F82430B1
:103C8000D1E701236375637D2BB1238A9A08628291
:103C9000C3F340032375638AA380A26932F813003B
:103CA000E08038BD007A7047FFDE38B5044683688F
:103CB0000B44836003681B680179984763798342EA
:103CC00018D0054680B1636900209847A368E26870
:103CD0009B1A2269934203D963690220984708E03E
:103CE00063690320984704E0636901209847A3684B
:103CF000E360657138BD38B504460D4603681B683E
:103D0000017998476071656138BD08B503681B6823
:103D1000984708BD10B50446436819444160032A1A
:103D20003BD008D8012A32D0022A2AD062B92273A5
:103D30006273227408E0042A36D0052A04D10023D5
:103D40000373437301230374237B002B6BD0637BCA
:103D5000002B5FD0A37B032B4DD02BD8012B3BD066
:103D6000022B66D1A368CB1A642B62D923681B6827
:103D700001220021204698476368A3600323A373B0
:103D800057E001230373437300230374DCE701232B
:103D90000373002343730374D6E7012303730023E3
:103DA000437303230374CFE7002303734373022396
:103DB0000374C9E7042B3CD1A368C91AB1F52F7F5E
:103DC00037D923681B680122002120469847636881
:103DD000A3600123A3732CE0A368CB1A642B28D91A
:103DE00023681B6800221146204698476368A36039
:103DF0000223A3731DE0A368CB1A642B19D923688F
:103E00001B6800221146204698476368A36004237C
:103E1000A3730EE023681B68012200212046984707
:103E20000123A37305E023681B6800221146204686
:103E30009847237E022B13D0032B33D0012B0ED1B6
:103E4000636862699B1A642B09D923681B68002286
:103E5000012120469847636863610223237610BDE1
:103E6000636862699B1A642BF9D9E37B0133DBB287
:103E7000E373227C93420AD223681B680122114615
:103E8000204698470123237663686361E7E7236848
:103E90001B6800220121204698470323237663688C
:103EA0006361DCE7636862699B1AB3F57A7FD6D9F0
:103EB0000023E373227C23681B68003A18BF0122A9
:103EC0000121204698476368636101232376C6E792
:103ED00010B504460E4B18680E4B1A784FF47A73DF
:103EE000B3FBF2F3B0FBF3F000F0D2FF68B90F2C94
:103EF00001D901200AE0024621464FF0FF3000F0D0
:103F0000A5FF054B1C60002000E0012010BD00BF94
:103F100000000020050000200800002008B5074A26
:103F2000136843F010031360032000F07DFF0320AB
:103F3000FFF7CEFFFDF79EFE002008BD00200240E7
:103F4000034A1168034B1B780B441360704700BF92
:103F5000C80C002005000020014B1868704700BF06
:103F6000C80C002038B50446FFF7F6FF0546B4F14B
:103F7000FF3F02D0044B1B781C44FFF7EDFF401BB2
:103F8000A042FAD338BD00BF05000020704708B535
:103F9000436A9A6A12F0500F1ED19A6A42F4007274
:103FA0009A621A68926802F46022B2F5602F03D018
:103FB0001846FFF7EBFF08BD1A7B002AF8D19A6A72
:103FC00022F480729A629A6A12F4805FF0D19A6A3F
:103FD00042F001029A62EBE71B6A1B6B9847EAE723
:103FE000704708B5406AFFF7FBFF08BD704708B58A
:103FF000406A836A43F040038362C36A43F0040368
:10400000C362FFF7F3FF08BD00B583B00022019241
:1040100090F82420012A00F0A8800346012280F8AD
:1040200024204A68062A34D8D0F800E0DEF83400AC
:10403000013A02EB82024FF01F0C0CFA02FC20EA5C
:104040000C00D1F800C00CFA02F20243CEF8342082
:104050000A68092A49D9D3F800E0DEF80C000A3AC8
:1040600002EB42024FF0070C0CFA02FC20EA0C00B3
:10407000D1F808C00CFA02F20243CEF80C200A680C
:10408000103A012A45D90020002283F8242003B0E9
:1040900000BD0C2A14D8D0F800E0DEF83000073A52
:1040A00002EB82024FF01F0C0CFA02FC20EA0C001B
:1040B000D1F800C00CFA02F20243CEF83020C7E774
:1040C000D0F800E0DEF82C000D3A02EB82024FF04F
:1040D0001F0C0CFA02FC20EA0C00D1F800C00CFA0C
:1040E00002F20243CEF82C20B2E7D3F800E0DEF86B
:1040F000100002EB42024FF0070C0CFA02FC20EA1F
:104100000C00D1F808C00CFA02F20243CEF81020DD
:10411000B5E71A681648824205D09A6A42F0200232
:104120009A620120B0E7906810F4000F1BD19068EC
:1041300040F4000090600A68102A01D00020A3E734
:104140000C4A12680C49A1FB0212920C02EB82028B
:104150005200019202E0019A013A0192019A002A6A
:10416000F9D1104690E700208EE702208FE700BFCC
:10417000002401400000002083DE1B4330B583B0E3
:104180000023019303689A6812F0010F33D10446AB
:104190009A6842F001029A60184B1B68184AA2FB09
:1041A00003239B0C019302E0019B013B0193019BC4
:1041B000002BF9D1FFF7D0FE054623689B6813F06A
:1041C000010F16D1FFF7C8FE431B022BF5D9236858
:1041D0009B6813F0010FF0D1A36A43F01003A362B0
:1041E000E36A43F00103E362002384F824300120F2
:1041F00002E0002000E0002003B030BD00000020FD
:1042000083DE1B43F8B504460E4617460168454851
:10421000814259D0444B994256D094F82430012B16
:104220007DD0012384F824302046FFF7A7FF054600
:1042300000286FD1A16A21F4706121F0010141F4DD
:104240008071A1622268384B9A4245D0A36A23F458
:104250008013A362536813F4806F05D0A36A23F41C
:10426000405343F48053A362A36A13F4805F49D0A0
:10427000E36A23F00603E362002384F82430236A10
:104280002A4A9A62236A2A4ADA62236A294A1A6304
:1042900023686FF002021A602268936843F4807307
:1042A000936021683B4632464C31206A00F054FE50
:1042B00023689A6802F46022B2F5602F25D09A68CC
:1042C00042F480129A6028E0164B5B6813F4702F5A
:1042D000A3D001231D4620E0A3F580635B6813F49F
:1042E000702FB3D0A36A43F48013A3620D4B5B68B5
:1042F00013F4806FB8D0A36A23F4405343F480537F
:10430000A362B1E70023E362B6E79A6842F4A00231
:104310009A6002E0002384F824302846F8BD022386
:104320001D46FAE700240140002801408F3F0008A5
:10433000E33F0008EF3F000838B503689A6812F0C1
:10434000010F01D1002038BD04469A6822F0010215
:104350009A60FFF701FE054623689B6813F0010F82
:1043600013D0FFF7F9FD431B022BF5D923689B6897
:1043700013F0010FF0D0A36A43F01003A362E36AC5
:1043800043F00103E3620120DDE70020DBE70000EA
:10439000002800F08B8010B50446836A002B5CD0A7
:1043A0002046FFF7C9FFA36A13F0100378D1002855
:1043B00076D1A26A22F4885222F0020242F002026E
:1043C000A2626268E1690A43217B42EA4102D4F8B1
:1043D00008C0BCF5807F03D0BCF1010F43D09C46E0
:1043E00094F814E0BEF1010F40D0D4F800E0DEF8FC
:1043F000041021F4694141EA0C01CEF80410D4F80C
:1044000000C0DCF808E02A490EEA01011143CCF8AB
:104410000810A168B1F5807F01D0012902D123697C
:10442000013B1B05D4F800C0DCF82C1021F470010E
:104430000B43CCF82C30236899681E4B0B409A42F2
:1044400025D0A36A23F0120343F01003A362E36AAA
:1044500043F00103E362012027E0C36280F82430C7
:10446000FDF7F0F89CE74FF4807CB9E731B9A1691A
:1044700001394CEA413141F4006CB6E7A16A41F0E0
:104480002001A162E16A41F00101E162ADE7002390
:10449000E362A36A23F0030343F00103A36204E091
:1044A000A36A43F01003A362012010BD01207047EE
:1044B000FDF7E1FFFE0E1FFF70B582B000230193F0
:1044C00090F82430012B74D00446012380F8243066
:1044D000FFF732FF064628B1002384F82430304627
:1044E00002B070BDA36A23F4885323F0020343F0A3
:1044F0000203A362304B1D68022001F0B1FCB5FB42
:10450000F0F56D00019502E0019B013B0193019BD9
:10451000002BF9D12046FFF731FE2268936843F063
:1045200008039360FFF718FD054623689A6812F0A8
:10453000080F15D0FFF710FD401B0A28F5D9236896
:104540009B6813F0080FF0D0A36A23F0120343F026
:104550001003A362002384F8243001231E46BEE723
:104560009A6842F004029A60FFF7F6FC0546236859
:104570009B6813F0040F15D0FFF7EEFC401B0A28D0
:10458000F5D923689B6813F0040FF0D0A36A23F0D9
:10459000120343F01003A362002384F824300123A4
:1045A0001E469CE7A36A23F0030343F00103A362C2
:1045B00092E702231E4692E700000020002800F048
:1045C000A18038B5044690F82030D3B12268136832
:1045D00043F001031360FFF7BFFC054623685A68E8
:1045E00012F0010F10D1FFF7B7FC401B0A28F5D9D4
:1045F000636A43F400336362052384F820300120AA
:1046000038BDFDF70BF9E1E71A6822F002021A60E3
:10461000FFF7A2FC054623685A6812F0020F0DD07E
:10462000FFF79AFC401B0A28F5D9636A43F400336C
:104630006362052384F820300120E1E7227E012A0D
:104640003DD01A6822F080021A60637E012B3BD0B5
:104650002268136823F040031360A37E012B39D036
:104660002268136823F020031360E37E012B37D008
:104670002268136843F010031360237F012B35D0A9
:104680002268136823F008031360637F012B33D083
:104690002268136823F004031360A368E2681343DD
:1046A00022691343626913436268013A2168134324
:1046B000CB6100206062012384F82030A0E71A68F3
:1046C00042F080021A60C0E72268136843F040039A
:1046D0001360C2E72268136843F020031360C4E745
:1046E0002268136823F010031360C6E7226813687A
:1046F00043F008031360C8E72268136843F004031B
:104700001360CAE701207047026890F82030013B2F
:10471000DBB2012B05D9436A43F4802343620120B5
:10472000704710B5D2F8003243F00103C2F80032EE
:104730004B6903F01F03012000FA03F3D2F81C02B7
:104740006FEA030C20EA0300C2F81C02C869C8B96A
:10475000D2F80C020CEA0000C2F80C02B1F804E036
:104760004869CC684EEA044E483042F830E0B1F86F
:1047700000E048698C684EEA044E483002EBC00005
:10478000C0F804E0C86901281AD0886990BBD2F843
:1047900004020CEA0000C2F80402086980BBD2F8E7
:1047A00014020CEA0000C2F81402096A01292DD093
:1047B000D2F8003223F00103C2F80032002010BD0D
:1047C000D2F80C021843C2F80C02B1F804E04869B0
:1047D0000C684EEA044E483042F830E0B1F80CE084
:1047E00048698C684EEA044E483002EBC000C0F8BD
:1047F00004E0CAE7D2F804021843C2F80402CCE786
:10480000D2F814021843C2F81402CEE7D2F81C12F0
:104810000B43C2F81C32CBE770B5044690F8203049
:10482000012B06D0436A43F400234362012630463D
:1048300070BDDEB2022380F820300268136823F0D6
:1048400001031360FFF788FB054623685B6813F0DC
:10485000010F0CD0FFF780FB431B0A2BF5D9636ACD
:1048600043F400336362052384F82030DFE7002639
:104870006662DCE710B590F820E00468D4F808C060
:104880000EF1FF3E5FFA8EFEBEF1010F78D81CF0EC
:10489000806F05D11CF0006F02D11CF0805F69D0E1
:1048A000CCF3016CBCF1020F05D9436A43F4000359
:1048B0004362012069E04FF0010E0EFA0CFEC3F8CE
:1048C00000E08B68002B40D1CB680C6843EA445E63
:1048D0000CF118031B01046844F803E003680CF1B1
:1048E000180E03EB0E130C695C600B7D012B39D0A5
:1048F000D17993791B0443EA0163517943EA012397
:1049000092F804E0016843EA0E0301EB0C11C1F8D0
:104910008C31D17893781B0443EA0163517843EAE0
:104920000123117802680B4302EB0C12C2F88831A4
:1049300002680CF1180C4FEA0C1C52F80C3043F0D2
:10494000010342F80C3000201FE04C6843EAC40326
:10495000CC6823430CF1180E4FEA0E1E046844F88D
:104960000E30BBE7036803EB0E13596841F4807106
:104970005960BDE7436A43F400134362012004E039
:10498000436A43F480234362012010BD90F820C0A5
:104990000CF1FF3C5FFA8CFCBCF1010F00F2B3801C
:1049A00061B9D0F800C0DCF80CC01CF0030F12D1C4
:1049B000436A43F40013436201207047D0F800C0FB
:1049C000DCF810C01CF0030F05D1436A43F4001358
:1049D00043620120704700B501F11B0C4FEA0C1C2B
:1049E000D0F800E05EF80CC00CF0040CC2F808C06F
:1049F000BCF1000F74D101F11B0C4FEA0C1CD0F874
:104A000000E05EF80CC04FEA5C5CC2F800C001F147
:104A10001B0C4FEA0C1CD0F800E05EF80CE00EF026
:104A2000020EC2F80CE0D0F800E0E644DEF804E044
:104A30000EF00F0EC2F810E0D0F800E0E644DEF809
:104A400004E0CEF3072EC2F818E0D0F800E0F444FA
:104A5000DCF804C04FEA1C4CC2F814C0026802EB38
:104A60000112D2F8B8211A70026802EB0112D2F8D2
:104A7000B821C2F307225A70026802EB0112D2F881
:104A8000B821C2F307429A70026802EB0112D2F811
:104A9000B821120EDA70026802EB0112D2F8BC21C2
:104AA0001A71026802EB0112D2F8BC21C2F307228C
:104AB0005A71026802EB0112D2F8BC21C2F307421C
:104AC0009A71026802EB0112D2F8BC21120EDA715F
:104AD00099B90268D36843F02003D360002000BD79
:104AE00001F11B0C4FEA0C1CD0F800E05EF80CC082
:104AF0004FEADC0CC2F804C089E70268136943F08E
:104B000020031361EAE7436A43F4802343620120F0
:104B1000704790F82030013BDBB2012B05D9436A86
:104B200043F48023436201207047026853690B43BA
:104B30005361002070477047704770477047704757
:104B400070477047704770477047704770472DE94E
:104B5000F84F054603685C69D3F804809F68DA68FB
:104B600091461A6992469A69934614F001063BD021
:104B700017F0010616D001229A6017F0020F08D133
:104B800017F0040F0CD117F0080606D04FF480562A
:104B900008E0FFF7D0FF002604E0FFF7CFFF01E0B9
:104BA0004FF4006617F4807F0DD02B684FF48072AD
:104BB0009A6017F4007F40F0928017F4806F00F045
:104BC000928046F4005617F4803F0DD02B684FF4C6
:104BD00080329A6017F4003F40F08F8017F4802FE6
:104BE00000F08F8046F4004614F0080F07D019F04B
:104BF000100F04D046F400762B681022DA6014F00F
:104C0000040F03D019F0080F40F0858014F0020F54
:104C100005D02B68DB6813F0030F40F0838014F09D
:104C2000400F07D01AF0100F04D046F480662B68AE
:104C300010221A6114F0200F02D01AF0080F75D15B
:104C400014F0100F04D02B681B6913F0030F74D1FC
:104C500014F4003F02D018F0100F72D114F4803F0A
:104C600002D018F0080F73D114F4004F33D018F0AD
:104C7000040F2DD014F4807F04D01BF0010F01D05D
:104C800046F0010614F4007F04D01BF0020F01D09F
:104C900046F0020614F4806F04D01BF0040F01D01C
:104CA00046F0040614F4006F12D01BF070030FD00E
:104CB000402B61D053D8202B58D0302B59D0102BFB
:104CC00001D146F008062A68936923F070039361C6
:104CD0002B6804225A60002E54D1BDE8F88F284674
:104CE000FFF72AFF6FE717F4006F02D046F4804603
:104CF00069E72846FFF723FF65E72846FFF71DFF12
:104D000072E717F4002F02D046F480366CE728468D
:104D1000FFF716FF68E72B680822DA602846FFF7DE
:104D200010FF73E72846FCF7EDFD78E72B680822B3
:104D30001A612846FFF707FF82E72846FFF702FFC0
:104D400086E72B6810225A602846FFF7FDFE85E7AC
:104D50002B6808225A602846FFF7F7FE84E7502B9D
:104D60000DD0602BAFD146F48076ACE746F010064C
:104D7000A9E746F02006A6E746F04006A3E746F07E
:104D80008006A0E76B6A33436B622846FFF7DEFEBE
:104D9000A3E70000002808DB0901C9B200F1604068
:104DA00000F5614080F80013704700F00F00090122
:104DB000C9B2014B1954704714ED00E000B500F082
:104DC0000700A0F1030CBCF1040F07D8C0F1070ED7
:104DD0000430062806D84FF0000C03E04FF0040E14
:104DE0004FF0000C4FF0FF3303FA0EF021EA000100
:104DF00001FA0CF103FA0CF322EA030241EA020081
:104E000000BD0000BFF34F8F0549CA6802F4E0629D
:104E1000044B1343CB60BFF34F8F00BFFDE700BFD0
:104E200000ED00E00400FA05074AD36823F4E063CC
:104E30001B041B0C000200F4E060034343F0BF635B
:104E400043F40033D360704700ED00E010B5044632
:104E5000054BD868C0F30220FFF7B0FF014620469B
:104E6000FFF798FF10BD00BF00ED00E0002807DB52
:104E700000F01F02400901239340024A42F820300B
:104E8000704700BF00E100E008B5FFF7BBFF00007E
:104E90000138B0F1807F0BD24FF0E0235861054A12
:104EA000F02182F823100020986107221A617047D0
:104EB0000120704700ED00E000B58E46016C4FF018
:104EC000010C0CFA01F1D0F83CC0CCF804100168D8
:104ED0004B604368102B05D00368C3F808E00368F3
:104EE000DA6000BD03689A600368C3F80CE0F8E775
:104EF00050B310B402460168144B0B441448A0FB95
:104F000003031B099B001364124BD363022382F833
:104F1000213008686FF30D10536894682343D468F8
:104F20002343146923435469234394692343D46975
:104F3000234303430B6000209063012382F8213058
:104F400082F8200010BC704701207047F8FFFDBFB9
:104F5000CDCCCCCC0000024010B5044690F8200027
:104F6000012834D0012084F8200094F82100012881
:104F700004D0002384F82030022010BD022084F8E1
:104F800021000020A063D4F800C0DCF8000020F06D
:104F90000100CCF800002046FFF78EFFE36A5BB10A
:104FA0002268136843F00E0313602268136843F00D
:104FB000010313600020E0E72268136823F0040374
:104FC00013602268136843F00A031360EDE70220C0
:104FD000D3E7034690F82120022A06D004228263F8
:104FE000002280F820200120704701680A6822F022
:104FF0000E020A6001680A6822F001020A60026C6F
:10500000C06B012101FA02F2426083F821100020F6
:1050100083F820007047000008B590F82130022B7B
:1050200003D004238363012008BD0268136823F0C2
:105030000E0313600268136823F001031360036812
:10504000194A934214D0143293421FD0143293421F
:105050001ED0143293421ED0143293421ED014320A
:10506000934202D04FF0807203E04FF4801200E0D0
:1050700001220E4B5A60012380F82130002380F872
:105080002030436B6BB198470020CDE71022F0E74A
:105090004FF48072EDE74FF48052EAE74FF480322C
:1050A000E7E71846C0E700BF0800024000000240E2
:1050B00008B5C36B1A68D0F800C0DCF800E0016CDA
:1050C00004238B40134238D01EF0040F35D0DCF897
:1050D000003013F0200F05D1DCF8003023F004037A
:1050E000CCF800300368464A934214D014329342FD
:1050F00018D01432934217D01432934217D014327E
:10510000934217D01432934202D04FF0806203E0F2
:105110004FF4800200E004223A4B5A60C36A03B1A4
:10512000984708BD4022F7E74FF48062F4E74FF458
:105130008042F1E74FF48022EEE702238B401342D6
:105140003FD01EF0020F3CD0DCF8003013F0200FEF
:1051500008D1DCF8003023F00A03CCF8003001233A
:1051600080F821300368264A934214D014329342C7
:105170001CD0143293421BD0143293421BD01432F1
:1051800093421BD01432934202D04FF0007203E0DE
:105190004FF4001200E002221A4B5A60002380F8FC
:1051A0002030836A002BBCD09847BAE72022F3E76F
:1051B0004FF40072F0E74FF40052EDE74FF4003285
:1051C000EAE708238B401342ABD01EF0080FA8D0AB
:1051D000DCF8003023F00E03CCF80030026CC16B19
:1051E000012303FA02F24A60836380F8213000232E
:1051F00080F82030036B002B93D0984791E700BFD5
:105200000800024000000240044B0022DA61044A18
:10521000136943F00103136101807047D00C002033
:1052200000200240184BDB6813F0100305D0174A2A
:10523000D36943F00203D3611023134AD26812F0FA
:10524000040F06D01149CA6942F00102CA6143F055
:1052500004030D4AD26912F0010F0DD00B49CA693F
:1052600042F00402CA610849CA6922F00102CA6117
:1052700040F20112934202D0034AD3607047CB69D7
:1052800023F00103CB61704700200240D00C0020C6
:105290000A4B1B6913F0800F0BD0084B084A5A6069
:1052A00002F188325A601B6913F0800F03D100208D
:1052B0007047002070470120704700BF0020024067
:1052C00023016745034A136943F0800313610020FB
:1052D000704700BF0020024038B50446FEF73CFE90
:1052E0000546164BDB6813F0010F0AD0B4F1FF3FFF
:1052F000F7D024B1FEF730FE401BA042F1D90320C5
:105300001BE00E4BDB6813F0200F02D00B4B20226A
:10531000DA600A4BDB6813F0100F0BD1074BDB6927
:1053200013F0010F06D1054BDB6813F0040F01D118
:10533000002002E0FFF776FF012038BD0020024088
:105340002DE9F0411D46244B1B7E012B41D0044624
:105350000E461746204B01221A764CF25030FFF7CA
:10536000BBFF034678BB012C08D0022C03D04FF0C2
:1053700004081C4607E04FF00208FAE74FF0010866
:10538000F7E70134E4B244451DD22101C1F1200206
:10539000A1F1200327FA01F105FA02F2114325FADF
:1053A00003F3194389B206EB4400FFF72DFF4CF2DB
:1053B0005030FFF791FF094A136923F0010313618D
:1053C00003460028DDD0044A002111761846BDE8C6
:1053D000F0810223FAE700BFD00C00200020024039
:1053E000064B0022DA61064B1A6942F004021A6188
:1053F0001A6942F040021A61704700BFD00C0020C9
:1054000000200240064B0022DA61064B1A6942F086
:1054100002021A6158611A6942F040021A6170472B
:10542000D00C002000200240264B1B7E012B46D0D2
:1054300070B505460E46234B01221A760368022BEF
:1054400020D04CF25030FFF747FF90BB4FF0FF33B6
:105450003360AC680121EA68AB6803EB8223A342A6
:1054600028D92046FFF7CEFF4CF25030FFF734FF2B
:10547000154A136923F0020313610146B8B904F514
:105480008064E8E74CF25030FFF726FF08B10121B5
:1054900010E00120FFF7A4FF4CF25030FFF71CFF93
:1054A0000146094A136923F00403136102E03460E2
:1054B00000E00121034B00221A76084670BD02214C
:1054C00008467047D00C00200020024070B582B022
:1054D0004FF0000EF446A4E0012B28D0022B03D19C
:1054E000CB6803F1080E24E01BBB8B68002B65D052
:1054F000012B5CD042614FF0080E1AE0664DAB42C2
:10550000F3D00CD8A5F58015AB42EED005F570258B
:10551000AB42EAD0A5F58015AB42E6D009E05F4D7D
:10552000AB42E2D005F58035AB42DED001E0D1F8E8
:105530000CE0FF2C45D806464FEA8C0233680F2555
:10554000954023EA05030EFA02F2134333604B68D9
:1055500013F0805F63D0524B9A6942F001029A6166
:105560009B6903F001030193019B4FEA9C02951C88
:105570004C4B53F825600CF00305AD000F23AB40F6
:1055800026EA0306484B984222D003F580639842EE
:1055900063D003F58063984261D003F5806398423D
:1055A00014D0042315E0CB6803F10C0EC1E70261AF
:1055B0004FF0080EBDE74FF0000EBAE74FF0040EB3
:1055C000B7E7061DACF108029200B7E7032300E03D
:1055D0000023AB4033430232324D45F822304B6852
:1055E00013F4803F3DD0314A1368234313604B6866
:1055F00013F4003F3BD02D4A5368234353604B685C
:1056000013F4801F39D0294A9368234393604B6871
:1056100013F4001F37D0254AD3682343D3600CF11D
:10562000010C0B6833FA0CF233D0012202FA0CF2AF
:1056300003EA020432EA0303F1D14B68032BBAD028
:105640007FF64AAF122BAED03FF658AF112B7FF446
:1056500070AFCB6803F1040E6BE70123B9E70223B7
:10566000B7E7124A136823EA04031360BFE70F4A3F
:10567000536823EA04035360C1E70C4A936823EAA2
:1056800004039360C3E7094AD36823EA0403D360A1
:10569000C5E702B070BD00BF00002210000031104D
:1056A00000100240000001400008014000040140D9
:1056B0008368194201D001207047002070470AB169
:1056C00001617047090401617047000082B0084B16
:1056D0001B68084AA2FB03235B0A00FB03F3019348
:1056E00000BF019B5A1E0192002BF9D102B07047F6
:1056F00000000020D34D6210002800F0F38170B547
:1057000082B00446036813F0010F2CD09A4B5B68FB
:1057100003F00C03042B1DD0974B5B6803F00C03C4
:10572000082B12D06368B3F5803F41D0002B55D1D0
:1057300003F1804303F504331A6822F480321A60BF
:105740001A6822F480221A6037E08B4B5B6813F4EE
:10575000803FE7D0884B1B6813F4003F03D0636899
:10576000002B00F0C181236813F0020F75D0824B2B
:105770005B6813F00C0F5FD07F4B5B6803F00C038A
:10578000082B54D02369002B00F08A807B4B012228
:105790001A60FEF7E1FB0546774B1B6813F0020F1A
:1057A00075D1FEF7D9FB401B0228F5D90320A0E1F3
:1057B000714A136843F480331360636843B3FEF7A0
:1057C000CBFB05466C4B1B6813F4003FCBD1FEF7B7
:1057D000C3FB401B6428F5D903208AE1B3F5A02F51
:1057E00009D0654B1A6822F480321A601A6822F4D4
:1057F00080221A60E1E703F18043A3F53C331A6885
:1058000042F480221A601A6842F480321A60D4E7A7
:10581000FEF7A2FB0546584B1B6813F4003FA2D0CD
:10582000FEF79AFB401B6428F5D9032061E1524B37
:105830005B6813F4803FA5D14F4B1B6813F0020F38
:1058400003D02369012B40F051814B4A136823F0A8
:10585000F803616943EAC1031360236813F0080F7A
:1058600033D0A369002B5DD0444B0122C3F88024C0
:10587000FEF772FB0546404B5B6A13F0020F21D125
:10588000FEF76AFB401B0228F5D9032031E13A4AB2
:10589000136823F0F803616943EAC1031360DCE78E
:1058A000364B00221A60FEF757FB0546324B1B6849
:1058B00013F0020FD1D0FEF74FFB401B0228F5D9A1
:1058C000032016E10120FFF701FF236813F0040F06
:1058D00000F09880284BDB6913F0805F35D1264BB0
:1058E000DA6942F08052DA61DB6903F08053019398
:1058F000019B01231E46224B1B6813F4807F27D097
:10590000E368012B3ED0002B54D103F1804303F513
:1059100004331A6A22F001021A621A6A22F004029F
:105920001A6234E0154B0022C3F88024FEF714FB02
:105930000546114B5B6A13F0020FC6D0FEF70CFB55
:10594000401B0228F5D90320D3E000231E46D2E7EE
:105950000B4A136843F480731360FEF7FDFA0546A3
:10596000074B1B6813F4807FCAD1FEF7F5FA401B82
:105970006428F5D90320BCE0001002400000424238
:10598000007000405F4A136A43F001031362E3684A
:1059900033B3FEF7E1FA05465A4B1B6A13F0020FC8
:1059A0002FD1FEF7D9FA401B41F288339842F3D940
:1059B00003209EE0052B09D0524B1A6A22F0010207
:1059C0001A621A6A22F004021A62E0E74D4B1A6A60
:1059D00042F004021A621A6A42F001021A62D6E721
:1059E000FEF7BAFA0546474B1B6A13F0020F08D0C0
:1059F000FEF7B2FA401B41F288339842F3D90320F4
:105A000077E0E6B9E369002B72D03E4A526802F0B3
:105A10000C02082A56D0022B17D03B4B00221A66E4
:105A2000FEF79AFA0446374B1B6813F0007F47D005
:105A3000FEF792FA001B0228F5D9032059E0314AFB
:105A4000D36923F08053D361DCE72F4B00221A6621
:105A5000FEF782FA05462B4B1B6813F0007F06D039
:105A6000FEF77AFA401B0228F5D9032041E0236AA9
:105A7000B3F5803F1AD023494B6823F47413226A8C
:105A8000606A024313434B601F4B01221A66FEF704
:105A900063FA04461B4B1B6813F0007F0ED1FEF720
:105AA0005BFA001B0228F5D9032022E0154A53684F
:105AB00023F40033A1680B435360DCE7002018E0B7
:105AC000002016E0012B16D00E4B5B6803F48031EA
:105AD000226A914211D103F47013626A93420ED18B
